:1000000000800020BD0100009162000091620000AC
:100010009162000091620000916200005D62000048
:100020005D6200005D6200005D62000091620000A0
:10003000916200005D620000916200004D6200006C
:1000400091620000916200009162000091620000E4
:1000500091620000916200009162000091620000D4
:1000600091620000916200009162000091620000C4
:1000700091620000916200009162000091620000B4
:1000800091620000916200009162000091620000A4
:100090009162000091620000916200009162000094
:1000A0004531000091620000916200009162000001
:1000B0009162000091620000916200009162000074
:1000C0009162000091620000916200009162000064
:1000D0009162000091620000916200009162000054
:1000E0009162000091620000916200009162000044
:1000F0009162000095750000916200001971000086
:1001000091620000ED8600009162000091620000A3
:100110009162000091620000916200009162000013
:100120009162000091620000916200009162000003
:100130009162000091620000455800009162000049
:1001400091620000916200009162000091620000E3
:1001500091620000916200009162000091620000D3
:10016000C106000059780000916200009162000011
:1001700091620000916200009162000091620000B3
:1001800091620000916200009162000091620000A3
:1001900091620000916200009162000071670000AE
:1001A000C167000049680000056900008969000016
:1001B000916200009162000091620000544B4CF289
:1001C000205210B51A804DF628121A8000BF00BFC9
:1001D00006F062F84F4B4FF010621A604E4A9A6078
:1001E0004E4ADA604E4B1A6812F4807204D14D49BF
:1001F0000A604FF4A8521A604B4B1A7802F00802BA
:10020000D2B21AB11A7842F008021A70474B484825
:10021000484C2A221A700023474A02E01959995083
:10022000043399188142F9D3444B454A002101E037
:1002300043F8041B9342FBD34249434800231A5816
:100240005A500433B3F5DE7FF9D1404B404A802148
:1002500003F8011B9342FBD13A4A3E4B1A603E4BD6
:100260000A221A703D4B24221A70A02203F8012C96
:100270003B4A137803F00203DBB2002BF9D0384A73
:10028000137803F01003DBB2002BF9D1344A137852
:1002900003F00C03082BFAD1324B03221A704022D0
:1002A0005A702F4A137803F02003DBB2002BF9D0E9
:1002B0002B4A137803F04003DBB2002BF9D02A4B12
:1002C0002A4A1A6002225A60294B20221A70244AB4
:1002D000137803F00C030C2BFAD1264A264B1A6034
:1002E000264B4BF67F321A60072243F8042C62B685
:1002F00006F0EEFB0B4B1B68DC0702D5204806F02E
:100300005BFB0BF0F1FB05F0CDFF07F0D7FFFEE73D
:100310000E20054030800440823F04000100002B85
:1003200010D0034014D0034002D0074000E0074043
:100330001C8DFF1FD0D600006087FF1F1C8DFF1F84
:100340008092FF1F0082FF1F0000000000E400E019
:100350005FE400E008ED00E0005006400140064088
:10036000064006400440064044800440000003115B
:1003700000400640C01005000480044014E000E086
:1003800006468155FFFFFFFFFFFFFFFFFFFFFFFF57
:10039000FFFFFFFFFFFFFFFFFFFFFFFFFFFFFFFF6D
:1003A000FFFFFFFFFFFFFFFFFFFFFFFFFFFFFFFF5D
:1003B000FFFFFFFFFFFFFFFFFFFFFFFFFFFFFFFF4D
:1003C000FFFFFFFFFFFFFFFFFFFFFFFFFFFFFFFF3D
:1003D000FFFFFFFFFFFFFFFFFFFFFFFFFFFFFFFF2D
:1003E000FFFFFFFFFFFFFFFFFFFFFFFFFFFFFFFF1D
:1003F000FFFFFFFFFFFFFFFFFFFFFFFFFFFFFFFF0D
:10040000FFFFFFFFFFFFFFFFFFFFFFFFFEFFFFFFFD
:1004100008B548F61C50074BC1F6FF701B1A062B97
:1004200000D808BD40F20003C0F20003002BF8D052
:100430009847F6E71F8DFF1F08B548F61C5048F691
:100440001C53C1F6FF70C1F6FF731B1A9B1003EB20
:10045000D373591000D108BD40F20002C0F200026F
:10046000002AF8D09047F6E710B548F61C54C1F6BC
:10047000FF74237873B9FFF7CBFF40F20003C0F29B
:1004800000032BB14DF2D060C0F20000AFF300804A
:100490000123237010BD00BF08B540F20003C0F275
:1004A00000034BB14DF2D06048F62051C0F200007D
:1004B000C1F6FF71AFF3008048F61C50C1F6FF7023
:1004C00003682BB140F20003C0F2000303B1984768
:1004D000BDE80840B0E700BF42F2107006F08ABEE7
:1004E00008B5064800F0CEFA10B9044800F0AAFB9F
:1004F0000248BDE8084000F0BCBE00BF388DFF1FB9
:1005000010B5054C204600F01DFB0449044A204666
:10051000BDE810400BF0CABA388DFF1F151200005D
:100520006087FF1F10B5002303710C4B0C22198844
:1005300001230B4208D1094A19431180084A118846
:1005400021EA0303138010BD04795B000134013AF2
:1005500004719BB2EDD1FF23037110BD948DFF1F79
:10056000908DFF1F2DE9F041984603790B2B04462F
:10057000174634D8CEB23046012106F059FA257913
:10058000184B19485E55194B44F2506223F8152058
:10059000012303FA05F503881D43154B05801A68EE
:1005A0000C214F4301FB08F112F480022780618087
:1005B00011D1196841F4800119600E4B4FF6FF719B
:1005C00019605A609A6042F6A27243F8042C02F550
:1005D000803243F8042C084B4FF480721A60207963
:1005E000BDE8F081AE8DFF1F908DFF1F968DFF1F20
:1005F0003C8004400460034008E100E04FF40872CE
:100600004FF41663FFF7AEBF03790B2B10D8094ADE
:10061000012101FA03F11388C9430B401380064AF4
:100620001088014011801BB9044B4FF480721A608E
:10063000704700BF908DFF1F948DFF1F88E100E081
:100640000C2359430388994203DB43889942B8BF7E
:100650000B4602790B2A9CBF014921F812307047E2
:10066000968DFF1F13B504790B2C024616D8B1F5F1
:10067000087F04DB02B0BDE81040FFF7E1BF13883C
:10068000528821EAE1700092B428A8BFB42000216A
:10069000B42207F0E9FD024B23F8140002B010BDAC
:1006A000968DFF1F03790B2B06D8044A108840FA59
:1006B00003F000F00100704700207047908DFF1F8D
:1006C00070B5334A334C118894F9003041FA03F184
:1006D00011F0010F154606D02F4A0021D05C06F01C
:1006E0007BF90C2323702D4B2C88197800234DB2F5
:1006F00023E0581944FA00F6013316F0010F1CD01C
:10070000254B264C185C2270012106F065F92378F0
:10071000204A59B21370224A32F81110214A106847
:1007200008181060204A106809181160013342F659
:10073000A37142F80C1C237070BD5A1850B20B28DC
:10074000D7DD164B17491A700A68C2F56A3303F5EC
:10075000C073B3F5966F05DB4EF660208342A8BFE9
:10076000034601E04FF496639A180A600E49086840
:100770001B180B600D4B42F6A37119600C4B9A428B
:1007800004D9084A00231360044A137070BD00BFE7
:10079000908DFF1F6487FF1FAE8DFF1F928DFF1F7F
:1007A000968DFF1F8C8DFF1F0C600340006003407F
:1007B0007FA9030030B585B0044600F0FFF858B3B8
:1007C0006623ADF8003010230025ADF80230204636
:1007D00041F20103ADF80430ADF8065000F0ECF83A
:1007E000E16A0290A06B0AF06BFE216B0BF026F819
:1007F000BDF8021003902B462A4604E01DF80300C2
:10080000121892B201338B42F8DBA069ADF80620D2
:10081000036869461B69984705B030BD074B10B5A2
:1008200004460360406B08B107F036FC00236363A5
:10083000204600F097F8204610BD00BF68CD0000AC
:1008400010B50446FFF7EAFF204607F025FC2046D6
:1008500010BD70B5856A04460E46084629460BF061
:10086000F5F830B9656A304629460BF0D1F800B981
:100870003546216B28460AF02DFFE16A0AF022FE78
:10088000A0630BF0EDF81C3401462046BDE8704033
:10089000FFF7E8BEC968FFF7DCBF10B504461C309F
:1008A000FFF700FF38B1636B2BB119682046BDE834
:1008B0001040FFF7CEBF10BDF7B50D9D0C9E009503
:1008C00004461F46092300F05DF825461A4B45F8FB
:1008D0001C3B2846FFF726FE012F01D1032300E031
:1008E0000423E363089B1549A362099B63620A9B87
:1008F000E3620B9B304623630BF080F820B90420A1
:1009000007F0C6FB066000E0002000236063A363DD
:100910002846E16BFFF772FE636B204613B1FFF7C9
:10092000BCFF02E0A16BFFF794FF2046012100F01D
:1009300041F82046FEBD00BF68CD000000C07944EC
:1009400038B500F11C0405462046FFF75DFE284639
:10095000002100F02FF82046FFF7A4FE80F00100F0
:10096000C0B238BD014B0360704700BF80CD0000AE
:10097000034B10B50446036007F08EFB204610BD04
:1009800080CD000010B5044608482371002323746D
:100990002060A36002980B68A161E0606261084674
:1009A0009B6921469847204610BD00BF80CD0000BE
:1009B00000797047017470474069704773B50F4BF9
:1009C0001B680193019D83680446C068EE1A0AF013
:1009D00029FE0AF00BFA02460B46002008490AF0ED
:1009E00083FB0022074B0AF055FA0AF0EDFC864221
:1009F00002D9A560012000E000207CBD848FFF1F8C
:100A00000000F03F00408F40014B0360704700BF83
:100A100098CD0000034B10B50446036007F03CFB83
:100A2000204610BD98CD000037B50C4D2B680093C3
:100A3000009A8368D31A8B4204460DD90D2005F025
:100A4000EBFFD0F1010138BF00210D2005F0C4FFFC
:100A50002B680193019BA3603EBD00BF848FFF1FE5
:100A600001717047064B10B5036000230446037103
:100A7000836001210D2005F0DBFF204610BD00BF83
:100A800098CD00000079704703790BB1642101E033
:100A90004FF47A71FFF7C8BF7047FFFF30B5164BB0
:100AA00085B01B680093009D836C40F6B832EB1A4A
:100AB000934204461DD90A23ADF80630012341F2C2
:100AC0000102ADF80430ADF80C300023ADF8082079
:100AD000ADF80A301A4601A9505C01321B180A2AE7
:100AE0009BB2F8D1ADF80A30236820461B699847BD
:100AF000A56405B030BD00BF848FFF1F08B5036833
:100B0000C9B21B68984708BD10B505480C46FE21C0
:100B1000FFF7F4FF61882046BDE8104006F06CB88E
:100B2000B491FF1F38B506480C46FE211546FFF765
:100B3000E5FF20462946BDE8384006F05DB800BF15
:100B4000B491FF1F70B50446FFF78CFF0F4B0025D3
:100B50002360E56025616561A561E56125626562E7
:100B6000A562E56225636563A5632565E563656444
:100B70002564182007F08CFA064600F0EDFC266587
:100B8000A56484F84C50204670BD00BFC8CD00005D
:100B90000269C368D31A70B505469E10002406E0AA
:100BA000EB6853F8240003681B6898470134B4428B
:100BB000F6DB70BD002330B5CB804C88184603E0CF
:100BC000CD5C401980B20133A342F9DB131AC8800F
:100BD0005842584130BD826A436AD31A70B50546FF
:100BE0009E10002406E06B6A53F8240003681B691A
:100BF00098470134B442F6DB70BD1FB56923ADF8E8
:100C000000301023ADF8023041F20103ADF804309A
:100C10000B88672B08BF4B8902934B8803930023F3
:100C2000ADF806301A461DF8021001325B18102A82
:100C30009BB2F8D1ADF80630036869461B69984746
:100C400005B000BD38B50446FFF71CFF002823D1CE
:100C5000206D00F0A0FC58B938BD20462946EA882E
:100C6000FFF7A8FF60B9206DBDE8384000F086BCF2
:100C7000206D00F07DFC0388652B0546F3D1ECE781
:100C800029890031204618BF0121FFF7E9FE2046DF
:100C90002946FFF7B2FFE6E738BD2DE9F0470B899B
:100CA0009CB005460C460E2B00F2A281DFE813F043
:100CB000D8002F014F013A01A00160013400580112
:100CC00046010F001B011E0184006F01F600C2697E
:100CD00083690026D31A4FEAA3083046464503DA53
:100CE000002840F081815BE1002840F07D814020B8
:100CF00007F0CEF9A3696289009363690193E36900
:100D00000293236A0393636A0493E3682946059375
:100D10002369FFF7D1FD67E1826A436A0026D31A8F
:100D20004FEAA3083046464503DA002840F05C81CC
:100D300044E1002840F05881B02007F0A9F90746A7
:100D4000606966890AF052F8CDE9000120690AF06D
:100D50002BF8A3690493E3690593E36B0693236C73
:100D6000CDE90201206A07930AF01EF8CDE90801D7
:100D7000606A0AF03BF8CDE90A01A06A0AF036F889
:100D8000CDE90C01E06A0AF031F8236B1093636B34
:100D90001193A36B1293636C1393A36C1493E36C82
:100DA0001593236DCDE90E01169338462946324638
:100DB000E36801F0F1F917E1826A436A0026D31A69
:100DC0004FEAA3083046464503DA002840F00C817C
:100DD000FFE0002840F00881B02007F059F90746ED
:100DE000606966890AF002F8CDE90001206909F01E
:100DF000DBFFA3690493E3690593E36B0693236C1C
:100E0000CDE90201206A079309F0CEFFCDE9080180
:100E1000606A09F0EBFFCDE90A01A06A09F0E6FF7C
:100E2000CDE90C01E06A09F0E1FF236B1093636BDD
:100E30001193A36B1293636C1393A36C1493E36CE1
:100E40001593236D1693636DCDE90E011793A36D72
:100E50003846189329463246E36800F021FFC3E084
:100E6000C36B002B40F0C080436A8A6953F822802C
:100E7000CA69482053F8227007F00AF92369628989
:100E800000936369CDF808800193236A0397049364
:100E90002946E368064601F041FD22E0436A8A697B
:100EA00053F822A0CA6953F822900A6A53F82280A4
:100EB0004A6A582053F8227007F0EAF823696289D9
:100EC00000936369CDF808A00193A36ACDF80C9054
:100ED0000693CDF8108005972946E368064605F08D
:100EE0003DF8EE6380E01CAE0A2301E01CAE0B234C
:100EF00006F8013D202007F0CBF8E36862890093F3
:100F0000236929460193334601F0A6FD6CE02020B9
:100F100007F0BEF82369628900932946E36801F06F
:100F200003FE61E04FF48C7007F0B2F829460646E4
:100F3000E268236901F0B6FF6E6455E0202007F0F7
:100F4000A7F829466289236903F046FF4CE0F820A0
:100F500007F09EF82946E268236903F0E1FF43E0C9
:100F6000A82007F095F82946E26804F0EDFD3BE083
:100F7000342007F08DF8636962890093A3690193B7
:100F8000E36929460293236904F082FE2CE02020C5
:100F900007F07EF82946E268236904F0B7FE23E0F3
:100FA000AB69678953F82600FFF706FDB7EB000E23
:100FB000DEF1000050EB0E0001368FE66B6A6789A8
:100FC00053F82600FFF7F8FC391A48424841013629
:100FD000A9E66B6A678953F82600FFF7EDFC3A1A19
:100FE000504250410136EEE628462146FFF705FE05
:100FF0001CB0BDE8F087F8B590E84800F61AB610C6
:1010000014BF334601239B1904460F466FF0404638
:1010100003D2B34238BF1E4626B1B00007F038F8FD
:10102000054600E0354662682368D31A9B1005EB3D
:1010300083013A6809B145F8232094E882007F1AB9
:10104000BF1003D02846BA000BF010F9206805EB5A
:101050008707043708B107F01FF884E8A00005EB04
:101060008605A560F8BD091A38B58C1005461346EB
:1010700005D010462946A2000BF0F8F8034603EB12
:10108000840038BDF8B590E84800F61AB61014BFD1
:10109000334601239B1904460F466FF0404603D2A6
:1010A000B34238BF1E4626B1B00006F0F1FF054638
:1010B00000E0354662682368D31A9B1005EB830174
:1010C0003A6809B145F8232094E803002A46FFF75F
:1010D000CAFF071D206808B106F0DEFF84E8A00003
:1010E00005EB8605A560F8BD091A38B58C100546D4
:1010F000134605D010462946A2000BF0B7F8034668
:1011000003EB840038BDF8B590E84800F61AB61035
:1011100014BF334601239B1904460F466FF0404627
:1011200003D2B34238BF1E4626B1B00006F0B0FF6E
:10113000054600E0354662682368D31A9B1005EB2C
:1011400083013A6809B145F8232094E803002A4650
:10115000FFF7CAFF071D206808B106F09DFF84E86D
:10116000A00005EB8605A560F8BD38B54268846827
:10117000A24203460D4606D0096802B111605A68C2
:1011800004325A6038BDFFF7BEFF38BD091A38B5C2
:101190008C100546134605D010462946A2000BF0D8
:1011A00065F8034603EB840038BDF8B5C3680669EB
:1011B000C269F61A8369D31A0446B6109F10002537
:1011C00004E053F82500FFF7BBFB0135BD42A369DE
:1011D000F7DBE269934218BFE361A26A636A934254
:1011E00018BFA362002506E053F8250010B103687C
:1011F000DB6898470135B542E368F5DB2269934225
:1012000018BF2361002384F84C306364E3632364D4
:10121000F8BDFFFF114B10B504460360006D10B11F
:1012200003685B689847002320462365FFF7BDFFEE
:10123000206B08B106F030FF606A08B106F02CFFA1
:10124000A06908B106F028FFE06808B106F024FFA5
:101250002046FFF7D9FB204610BD00BFC8CD0000D7
:1012600010B50446FFF7D6FF204606F015FF2046CE
:1012700010BD2DE9F0410446FFF706FC206D00F09B
:10128000F2F92046FFF7FEFB002800F0CB80206D2E
:1012900000F081F9002800F0B680206D00F068F9B8
:1012A000054629462046EA88FFF784FC002800F01E
:1012B000A7802B880B2B6FD00CD8062B4ED003D8D1
:1012C000022B40F09D8033E0072B21D0082B40F00B
:1012D000978058E0512B58D005D80C2B5FD00F2B9E
:1012E00040F08E8071E0652B03D0672B40F0888042
:1012F00019E029890031204618BF0121FFF7B0FB12
:101300002046FFF7BFFB48B92046FFF74EFF05E038
:101310002B89003318BF012384F84C30204629461E
:10132000FFF76BFC6CE020462946FFF7B6FC67E050
:10133000E269A369D31A9F1000260CE0A36953F851
:101340002600FFF739FBAB6898424FEA860801D1C7
:10135000A3694BE00136BE42F0DB51E0A26A636A4A
:10136000D31A9F1000260BE0636A53F82600FFF79C
:1013700023FBAB6898424FEA860800D135E001367E
:10138000BE42F1DB3CE0E06B07E0E06B002837D0C9
:10139000294601F027F933E0606C88B328E0626BDE
:1013A000236BD31A9F1000260CE0236B53F8260002
:1013B000FFF702FBAB6898424FEA860801D1236B26
:1013C00014E00136BE42F0DB1AE0A26A636AD31A67
:1013D0009F10002612E0636A53F82600FFF7ECFA2C
:1013E000AB6898424FEA860807D1636A53F8080051
:1013F000036829465B68984702E00136BE42EADB93
:10140000206D00F0BBF894F84C305BB12046FFF73C
:10141000BFFB2046FFF7DFFB206C18B1BDE8F041B1
:1014200003F0A8BDBDE8F081F8B590E84800F61AD1
:10143000B61014BF334601239B1904460F466FF0C4
:10144000404603D2B34238BF1E4626B1B00006F074
:101450001FFE054600E0354662682368D31A9B10DC
:1014600005EB83013A6809B145F8232094E80300AD
:101470002A46FFF78BFE071D206808B106F00CFE18
:1014800084E8A00005EB8605A560F8BD1FB50369DB
:10149000426901919342044605D003B11960236962
:1014A0000433236103E00C3001A9FFF7BDFF01986D
:1014B000FFF77EFA0238072834D8DFE800F031332E
:1014C000331616331F04E369216A019A8B42039293
:1014D00005D003B11A60E3690433E36122E004F14B
:1014E000180003A9FFF7CEFD1CE004A9019B04F13D
:1014F000240041F8043DFFF738FE13E0636BA16B55
:10150000019A8B42039205D003B11A60636B0433D6
:10151000636307E004F1300003A9FFF76CFD01E00D
:10152000019B23641FBDFFFF054B10B504460360FC
:10153000006908B106F0B2FD00232361204610BD0A
:10154000F8CD000010B50446FFF7EEFF204606F088
:10155000A3FD204610BDFFFF044A02600022027175
:101560000261C2608260427182717047F8CD0000F2
:1015700003790BB1006970471846704710B50446EF
:10158000006908B106F08AFD002323612371A3716D
:10159000E360A36010BD007970470B880C2B26D048
:1015A0000CD8072B18D004D8022B20D0062B20D122
:1015B0001DE0082B1BD00B2B1BD116E0642B16D083
:1015C00004D80F2B13D0512B13D10CE0672B05D06F
:1015D0006C2B0CD0652B0CD10A230BE01023C360BD
:1015E0000123437107E0142304E00C2302E01023DD
:1015F00000E00023C360C068704770B50446C0684F
:101600000E4606F047FD0023054602E0C25CEA54A0
:101610000133B3422069F9DB08B106F03FFD2561D3
:1016200070BD0B890E2B1CD8DFE803F00E171717BF
:101630001B150A10170817170C17190028230FE09D
:1016400054230DE05C230BE0242309E01023C36046
:101650000123037105E0202302E0142300E02C2382
:10166000C360C06870472DE9F843044605F0B6FA38
:10167000002854D02379002B51D14CE0E368A568B1
:10168000002B1BDC05F064FA70550135012DA560B7
:1016900034D93146A7602046FFF77FFF06F0FAFCF9
:1016A000A3682061F25CC254A36822690133A3607D
:1016B000F15CD154A3680133A3601FE09D421DDAA1
:1016C000D4F8109005F044FA09F80500E3680135F4
:1016D0009D42A56012D1637913B984F804800DE0AE
:1016E00021692046FFF79DFF20462946FFF785FF29
:1016F000677103E04FF0010804F114062779002F09
:10170000BCD0BDE8F88305F023FAFE2807D10123F9
:10171000A371BDE8F883A379002BEBD1F3E7BDE813
:10172000F883FFFF034B10B504460360FFF71AF977
:10173000204610BD08CE000010B50446FFF7F2FFAA
:10174000204606F0A9FC204610BDFFFF37B5069DD8
:1017500000950446FFF716F9014B204623603EBD75
:1017600008CE0000084B10B504460360D0F8AC006A
:1017700008B106F091FC0023C4F8AC30204600F01C
:10178000B7FB204610BD00BF28CE000010B50446B0
:10179000FFF7E8FF204606F07FFC204610BD10B59D
:1017A0000368017A1C7843681A78437A1A40837A6E
:1017B0000C4203F0030318BF43F004030AB143F0E3
:1017C00008039A10013B82720D2B14D8DFE803F056
:1017D000070A0D0A1310070710130A0D0A07C3683A
:1017E000013307E0C368013B04E0C368023301E052
:1017F000C368023BC36010BD70B5054600F0CAFA6D
:10180000D5F8AC400646237C72B6012B02D82046A0
:10181000FFF7C5FF62B6E368D5F8A800584309F0A2
:1018200005FF0146304609F04DFE4FF07C5109F0AE
:1018300051FF70BD08B5034BD3F88400FFF7AFFF2D
:1018400008BD00BFBC8DFF1F08B5034BD3F8800057
:10185000FFF7A5FF08BD00BFBC8DFF1F08B5024BF9
:10186000D86FFFF79CFF08BDBC8DFF1F08B5024B6A
:10187000986FFFF794FF08BDBC8DFF1F08B5024BA2
:10188000586FFFF78CFF08BDBC8DFF1F08B5024BDA
:10189000186FFFF784FF08BDBC8DFF1F08B5024B12
:1018A000D86EFFF77CFF08BDBC8DFF1F08B5024B4B
:1018B000986EFFF774FF08BDBC8DFF1F08B5024B83
:1018C000586EFFF76CFF08BDBC8DFF1F08B5024BBB
:1018D000186EFFF764FF08BDBC8DFF1F08B5024BF3
:1018E000D86DFFF75CFF08BDBC8DFF1F08B5024B2C
:1018F000986DFFF754FF08BDBC8DFF1F08B5024B64
:10190000586DFFF74CFF08BDBC8DFF1F08B5024B9B
:10191000186DFFF744FF08BDBC8DFF1F08B5024BD3
:10192000D86CFFF73CFF08BDBC8DFF1F08B5024B0C
:10193000986CFFF734FF08BDBC8DFF1F08B5024B44
:10194000586CFFF72CFF08BDBC8DFF1F08B5024B7C
:10195000186CFFF724FF08BDBC8DFF1F08B5024BB4
:10196000D86BFFF71CFF08BDBC8DFF1F08B5024BED
:10197000986BFFF714FF08BDBC8DFF1F08B5024B25
:10198000586BFFF70CFF08BDBC8DFF1F08B5024B5D
:10199000186BFFF704FF08BDBC8DFF1F08B5024B95
:1019A000D86AFFF7FCFE08BDBC8DFF1F08B5024BCF
:1019B000986AFFF7F4FE08BDBC8DFF1F08B5024B07
:1019C000586AFFF7ECFE08BDBC8DFF1F08B5024B3F
:1019D000186AFFF7E4FE08BDBC8DFF1F08B5024B77
:1019E000D869FFF7DCFE08BDBC8DFF1F08B5024BB0
:1019F0009869FFF7D4FE08BDBC8DFF1F08B5024BE8
:101A00005869FFF7CCFE08BDBC8DFF1F08B5024B1F
:101A10001869FFF7C4FE08BDBC8DFF1F08B5024B57
:101A2000D868FFF7BCFE08BDBC8DFF1F08B5024B90
:101A30009868FFF7B4FE08BDBC8DFF1F08B5024BC8
:101A40005868FFF7ACFE08BDBC8DFF1F08B5024B00
:101A50001868FFF7A4FE08BDBC8DFF1F08B521283C
:101A600000F2D580DFE810F0220027002C003100C2
:101A700036003C00410046004B00500055005A0023
:101A80005F00640069006E00730078007D008200D2
:101A900087008C00910096009B00A000A500AA0082
:101AA000AF00B400B900BE00C300CD00594B002008
:101AB00019605949A0E0574B0120596057499BE0F4
:101AC000544B02209960564996E0524B0320D9604E
:101AD000544991E04F4B04201961024652498CE071
:101AE0004C4B05205961514986E04A4B06209961CB
:101AF0004F4981E0474B0720D9614E497CE0454B77
:101B0000082019624C4977E0424B092059624B4941
:101B100072E0404B0A20996249496DE03D4B0B2031
:101B2000D962484968E03B4B0C201963464963E0A1
:101B3000384B0D20596345495EE0364B0E209963C2
:101B4000434959E0334B0F20D963424954E0314BAC
:101B50001020196440494FE02E4B112059643F4931
:101B60004AE02C4B122099643D4945E0294B132053
:101B7000D9643C4940E0274B142019653A493BE0C1
:101B8000244B15205965394936E0224B16209965BA
:101B9000374931E01F4B1720D96536492CE01D4BE2
:101BA00018201966344927E01A4B19205966334921
:101BB00022E0184B1A20996631491DE0154B1B2075
:101BC000D966304918E0134B1C2019672E4913E0E1
:101BD000104B1D2059672D490EE00E4B1E209967B2
:101BE0002B4909E00B4B1F20D9672A4904E0094B18
:101BF000C3F8801028492020042204F077FD01203A
:101C000008BD044B2120C3F884102449F4E70020C8
:101C100008BD00BFBC8DFF1F4D1A00003D1A00001B
:101C20002D1A00001D1A00000D1A0000FD190000F9
:101C3000ED190000DD190000CD190000BD190000EC
:101C4000AD1900009D1900008D1900007D190000DC
:101C50006D1900005D1900004D1900003D190000CC
:101C60002D1900001D1900000D190000FD180000BD
:101C7000ED180000DD180000CD180000BD180000B0
:101C8000AD1800009D1800008D1800007D180000A0
:101C90006D1800005D18000049180000351800009C
:101CA000F0B599B0DDE91E45CDE90045DDE92045F7
:101CB000CDE90245229C0494239C0594249C06941F
:101CC000259C0794DDE92645CDE90845DDE9284551
:101CD000CDE90A45DDE92A45CDE90C45DDE92C458C
:101CE000CDE90E452E9C10942F9C1194309C12949B
:101CF000319C1394329C1494339C1594349C064666
:101D0000169400F049FA214B1420336006F0C0F914
:101D10009DF8D4709DF8D85004460221384604F04E
:101D200087FE2846022104F083FE194A52F8373014
:101D300003F5007121600121217252F83520617292
:101D400002F500700021E16060604FF4FA41013952
:101D5000FDD193F8003292F8002203F00103D2077C
:101D600044BF43F00203DBB2A37221463846FFF7BB
:101D700075FE214620742846FFF770FE237C181854
:101D80002074C6F8AC40304619B0F0BD28CE000033
:101D900078D0000038B5046A0546237C72B6012B62
:101DA00002D82046FFF7FBFC62B6E368D5F8A8002E
:101DB000584309F03BFC38BD2DE9F047444B86B051
:101DC0001B6805938246059808F0EEFFDAE91223B6
:101DD000CDE9000108F0AAFEDAE9242306460F4601
:101DE00000203C4909F080F900223B4B09F052F8F1
:101DF00002460B463046394609F0D2FA00285DD03B
:101E0000DAF8003050465B69984708F0EFFFDAE9EE
:101E10001C23CDE9020108F089FE02460B4608F0BA
:101E200087FE29A3D3E9002309F034F88046DAF8C5
:101E30009800894608F0C8FF02460B4640464946CE
:101E400009F052F900228046894630463946224B35
:101E500009F04AF902460B464046494609F044F962
:101E6000DAE9204502460B462046294609F012F8D9
:101E700022462B4606460F460020164908F056FE1D
:101E80000446DAF844000D4608F0B0FF02460B465F
:101E90002046294608F0FEFF02460B4630463946EA
:101EA00008F046FE09F0B8FADDE90223CAE91C236E
:101EB000DDE90023CAE91223CAF8440006B0BDE8F0
:101EC000F08700BFAFF30080182D4454FB21094078
:101ED000848FFF1F0000F03F00408F40AFF3008071
:101EE00003460A46C06993F8881000F04EBAFFFF17
:101EF0000D4B10B5044603600021FFF7F1FF606A47
:101F000008B106F0C9F8E06908B106F0C5F8206A22
:101F100008B106F0C1F800232362E3616362204642
:101F2000FFF700FC204610BD48CE000010B5044667
:101F3000FFF7DEFF204606F0AFF8204610BDFFFF9A
:101F40002DE9F7431F4690F82C308046164663B9BA
:101F5000194B446A1B680193019808F025FF002281
:101F6000164B09F0C1F8C4E90401D8F858900123D0
:101F700088F82C30484608F039FF32463B46044684
:101F80000D4609F0F9F960B909F1004008F02EFF9B
:101F900032463B4604460D4609F00CFA08B9344671
:101FA0003D46054B1B680093009BC8E91E45C8F8D9
:101FB0003030BDE8FE8300BF848FFF1F00408F409C
:101FC00010B50446C86808F011FF02460B462046CB
:101FD000BDE81040FFF7B4BF73B5114B1B68019308
:101FE00090F82C30019A0646CBB1036BD21A436BA2
:101FF0009A4214D9002400250022002380F82C20C6
:10200000C0E918454364C0E91A45C0E91E4596F881
:102010008810C06900F0B9F9706A00F0FDF97CBD64
:10202000848FFF1FFFFFFFFF036870B55B690646E3
:102030009847014609F046FA08F0D8FE0AA3D3E90A
:10204000002308F027FF0446D6F898000D4608F054
:10205000BBFE02460B462046294609F045F809F02A
:10206000DBF9F06370BD00BF182D4454FB2109401B
:102070002DE9D343214B1B6801930446019808F0D6
:1020800093FED4E914238046894608F04FFDD4E935
:10209000282306460F460020194909F025F800229A
:1020A000184B08F0F7FE02460B463046394609F059
:1020B00081F908B3A36B012B02D1606C206403E0AB
:1020C0002046FFF7B1FFE06B08F090FEC4E918016D
:1020D000606A00F0A7F9A06A08F076FED4E91A2336
:1020E00008F0D8FEC4E91489C4E91A0109F06CF9B2
:1020F00001462046FFF7F4FEBDE8DC83848FFF1F16
:102100000000F03F00408F4010B50446FFF754FE3A
:1021100094F82C3023B12046BDE81040FFF7A8BF4B
:1021200010BD10B50446FFF757FF2046BDE810402C
:10213000FFF7EABF10B586B00446FEF73FFC48B390
:10214000636C23646A23ADF804301423ADF80630C1
:10215000204641F20103ADF80830FEF72DFC039054
:102160002046FFF761FF236C049005930023ADF830
:102170000A30BDF806001A4603E0C95C521892B254
:102180000133834201A9F8DBA069ADF80A20036896
:102190001B69984706B010BD2DE9F0418CB006468A
:1021A00000930623FFF7D2FA25995B4BB16324997C
:1021B0003360DDE91A457163DDE91401C6E928459C
:1021C000C6E92401DDE912452399C6F8981026993D
:1021D00000220023C6E9204500270024C6E9182371
:1021E000C6E91A23C6E91C23C6E91E233464F46336
:1021F000B16286F82C70082005F04AFF9DF858104F
:10220000054600F091F8179BF561444DC6F88830FB
:1022100042F2107004F0EEFF2B680993099B3363C0
:102220002B680A930A9808F0BFFD2B680B93C6E948
:1022300012010B9808F0B8FD7464C6E91401582027
:1022400005F026FFDDE91C23CDE90023DDE91E238F
:10225000CDE90223DDE92023CDE90423289B06F103
:102260006801069306F1600206F17803044600F067
:102270009BF827A3D3E9002374621420C4E9062342
:1022800005F006FF9DF860809DF864500446022129
:10229000404604F0CDFB2846022104F0C9FB204A49
:1022A00052F8383003F5007121600121217252F893
:1022B0003520617202F500706060E7604FF4FA410A
:1022C0000139FDD193F8003292F8002203F00103A6
:1022D000D20744BF43F00203DBB2A372214640465B
:1022E000FFF7BCFB214620742846FFF7B7FB237C91
:1022F0001818229B2074B365279B34623046C6F8B9
:10230000A8300A21FEF756FB30460CB0BDE8F0813C
:102310000000000000C05F4048CE0000848FFF1F17
:1023200078D00000AFF30080014A0170426070472E
:102330008091FF1F70B50446406803680E461B6815
:102340002178154698476068036831461B689847AE
:102350006068036829461B689847606822780368AC
:10236000B618A9191B6801F07F01984770BD7E2A35
:10237000A8BF7E226FF07D039A42B8BF1A46002A9A
:10238000B8BF5242D2B2FFF7D5BF10B54C1E012CD8
:1023900009D802290CBF0421002101EBD271BDE84C
:1023A0001040FFF7E4BF10BD13B580E80E00DDE973
:1023B0000423C0E90A23DDE90623C0E90C23DDE993
:1023C0000823C0E90E23124B1B68019304460198B1
:1023D00008F0EAFC00220F4B08F086FE00220023E2
:1023E000C4E91223C4E9102307A3D3E90023C4E9F5
:1023F0000401C4E906230A9808F0F8FCC4E91401B2
:1024000020461CBDAFF300800000000000C05F400C
:10241000848FFF1F00408F4000220023C0E910235B
:102420007047FFFF2DE9F04F584B89B01B680793A9
:102430008046079808F0B8FC0022554B08F054FE7F
:10244000D8E90423CDE9040108F070FBD8F808208E
:10245000D8F8043082468B46D2E90001D3E9002344
:1024600008F064FBD8E9062304460D46D8E91401B8
:1024700008F010FD524681460E465B46204629462E
:1024800008F008FDD8E9102308F052FB4A4633460D
:10249000CDE9020108F08EFF10B14A46334611E043
:1024A00006F1004C6346DDE902014A46CDF804C05E
:1024B00008F062FFDDF804C010B9DDE9022301E095
:1024C0004A466346C8E910232046D8E90A2329462C
:1024D00008F0E0FCD8E9102306460F46D8E90C01C5
:1024E00008F0D8FC02460B463046394608F020FB7F
:1024F000D8E9122306460F462046294608F016FB67
:1025000052465B4608F0F0FDD8E90E2308F0C2FC05
:1025100002460B463046394608F00AFBD8F80090D0
:102520000B460246C9E90023D8F818B0D8F81CA019
:102530005A4653460E46074608F03CFF002818BF8F
:102540005F4618BF56463A463346C9E90023D8F8D5
:102550001C30D8F818B003F1004A5A4653463846A2
:10256000314608F009FF00280CBF3A465A460CBF16
:1025700033465346C9E90023DDE90423C8E912457F
:10258000C8E9042309B0BDE8F08F00BF848FFF1FA6
:1025900000408F40034B10B504460360FEF7E2F99C
:1025A000204610BD68CE000010B50446FFF7F2FFCC
:1025B000204605F071FD204610BDFFFF37B5069D92
:1025C0001B7800950446FEF7DDF9054B2360079B59
:1025D00023639DF824302377089B2046E3623EBDA9
:1025E00068CE0000037F2BB18B684362CB688362A7
:1025F0000B690362704713B58B68CA68019302AB1D
:1026000043F8082D0268546993E80600A0471CBDF2
:1026100010B50446806BFFF7DFFCA06BFFF774FD7D
:10262000606BFFF7D9FC606BBDE81040FFF76CBD35
:102630002DE9F74302AB03E90600076B009E019DFD
:1026400004463946304609F0F9F8E16A80462846E2
:1026500009F040F839468146384608F033FF014614
:10266000484609F0EBF80146404608F02BFF08F019
:10267000BDFB02460B46A06BFFF762FC276B3046A2
:10268000394609F0DBF8E16A0646284609F022F8E7
:1026900039460546384608F015FF0146284609F038
:1026A000CDF80146304608F00BFF08F09FFB0246CC
:1026B000606B0B4603B0BDE8F043FFF741BCFFFF82
:1026C000034B10B504460360FFF764FF204610BDBE
:1026D00088CE000010B50446FFF7F2FF204605F053
:1026E000DBFC204610BDFFFFF8B51046194614A3C9
:1026F000D3E9002308F01CFA13A3D3E9002306460C
:102700000F4606F035F9002204460D46304639469C
:10271000002308F031FE40B1204629460AA3D3E940
:10272000002308F005FA04460D462046294604A376
:10273000D3E9002308F0FAF9F8BD00BFAFF3008039
:10274000182D4454FB210940182D4454FB211940F5
:1027500038B50446806BFFF767FC216C054608F02E
:10276000AFFE216B08F0B6FF256438BD38B50446CE
:10277000406BFFF759FCE16B054608F0A1FE216BA9
:1027800008F0A8FFE56338BD002170B5064601607A
:102790004160104619460022094B08F07BFB0446B5
:1027A0000D4606F043F808F037FE2946B060204693
:1027B00005F0F2FF08F030FEF060304670BD00BF5B
:1027C0000000E03F2DE9F04F91B08246FEF7F6F8A9
:1027D000002800F0A0805046FFF7BAFF044650469C
:1027E000FFF7C4FF05462946204608F069FEDAF8DF
:1027F0002C1009F023F8DAF8441008F06BFFDAF82F
:10280000201008F05FFECAF8200008F0EFFA024638
:102810000B465046FFF768FF08F0FEFD2946834649
:10282000CAF82000204608F04DFE4FF07C5108F019
:1028300051FF08F0DBFA064658460F4608F0D6FA74
:1028400004460D4605F0A8FF0246DAF8240003927C
:10285000029108F0CBFA039A029B804689463046E3
:10286000394608F017FB0B4602464946404608F039
:102870005FF908F0D1FD29468446CAF824002046B5
:10288000CDF804C005F0D2FF0246DAF82800039222
:10289000029108F0ABFA039A029B804689463046C3
:1028A000394608F0F7FA02460B464046494608F01A
:1028B0003FF908F0B1FD22460646CAF828002B462B
:1028C00005A85146FFF760FF6C23079AADF8243046
:1028D0001C23ADF82630DDF804C00E9241F201034E
:1028E000089AADF8283000230F92ADF82A30CDF8C1
:1028F0002CC00C96CDF834B01A4609A9505C0132B0
:102900001B181C2A9BB2F8D1DAF81800ADF82A304F
:1029100003681B69984711B0BDE8F08F70B586B0A9
:1029200006AD002605F8016D00930A9B01930B9BF1
:102930000293012303932B460446FFF73FFE084B07
:1029400023600C9B63630D9BA3630023E3632364F9
:1029500023626362A3620E9B2046636406B070BD6F
:1029600088CE00007047FFFF034B10B5044603609C
:10297000FDF7F8FF204610BDA8CE000010B50446B4
:10298000FFF7F2FF204605F087FB204610BDFFFF52
:1029900038B50546007F03F0ABFD04462846FEF738
:1029A00007F80A28204606D108F040FE08F01EFA73
:1029B00000220F4B06E008F039FE08F017FA08A3D2
:1029C000D3E9002308F066FA07A3D3E9002308F04F
:1029D0008BFB0022074B08F087FB08F01DFD38BD7C
:1029E000666666666666C94000000000E0FFEF406C
:1029F0000000B44000408F4030B585B00446FDF77C
:102A0000DDFF38B36D23ADF8003010230025ADF89D
:102A10000230204641F20103ADF80430ADF8065013
:102A2000FDF7CAFF02902046FFF7B2FFBDF8021083
:102A300003902B462A4604E01DF80300121892B2B8
:102A400001338B42F8DBA069ADF8062003686946C4
:102A50001B69984705B030BD73B5069E1B78079D6E
:102A600000960446FDF78EFF0A4B012D236001D12D
:102A70000E2304E0022D01D10F2300E01023E361B7
:102A8000207F002103F0D4FF102003F007FD204633
:102A90007CBD00BFA8CE0000704730B585B00446AD
:102AA000FDF78CFF50B36E23ADF8003010230025E6
:102AB000ADF80230204641F20103ADF80430ADF824
:102AC0000650FDF779FF0290207F03F0A5FF431B1E
:102AD000584258410390BDF802102B462A4604E0A4
:102AE0001DF80300121892B201338B42F8DBA06983
:102AF000ADF80620036869461B69984705B030BDEC
:102B0000034B10B504460360FDF72CFF204610BDB3
:102B1000C0CE000010B50446FFF7F2FF204605F0D6
:102B2000BBFA204610BDFFFF13B5009301230446F6
:102B3000FDF728FF084B2360049B012B01D10B23D9
:102B400000E00C23E361207F022103F071FF1020DD
:102B500003F0A4FC20461CBDC0CE0000054B10B500
:102B6000044640F86C3B01F083FE2046FDF7FAFE78
:102B7000204610BDD8CE000010B50446FFF7EEFF8A
:102B8000204605F089FA204610BD10B50446C8302D
:102B900001F0B2FC0368A0661B69984700280ADDB3
:102BA000012184F8C01084F8C11084F8C21084F8A0
:102BB0000C11204605E0002384F80C3120466FF00C
:102BC0000101BDE81040FDF7F5BEFFFFF8B5114863
:102BD000069D16461F460C4600F03CFB31460D484C
:102BE00000F0DEF900210B4800F044FB21460948C3
:102BF0003A4600F00DFC002405E0064800F0F8F924
:102C000028550134E4B2034800F0E8F90028F4D173
:102C1000F8BD00BF988EFF1F1FB503AB009368215E
:102C200002234122FFF7D2FF9DF80C009DF80D30E2
:102C300043EA002000B205B000BDFFFFFFFFFFFF29
:102C400070B590F80C3192B00446002B00F0C780AC
:102C5000806E03689B699847002800F0C08094F854
:102C60000D31002B40F08A8002A800F00DFD05A870
:102C700000F00AFD08A800F007FDA16E02A81431BB
:102C800000F0E0FCA16E05A8083100F0DBFCA16EAD
:102C900008A8203100F0D6FCA36EDB6A02AA05A9C1
:102CA000009304F16C0008AB01F012FFA06E036802
:102CB0001B6A98470EA800F0A3FE0BA800F0E4FCE6
:102CC00004F1B4010BA800F0BDFC04F1A4010EA8AE
:102CD00000F0CAFD029BE361039B2362049B6362D5
:102CE000059BA362069BE362079B2363089B6363C8
:102CF000099BA3630A9BE3630E9B23640F9B63649E
:102D0000109BA364119B2046E364FFF785FF08F046
:102D10008DFC08F06BF834A3D3E9002308F0E4F944
:102D20000022354B07F004FF08F076FB20650C9875
:102D30000D9E0B9D08F05AF82DA3D3E9002308F04F
:102D4000A9F808F069FB6065304608F04FF828A341
:102D5000D3E9002308F09EF808F05EFB216E08F02E
:102D6000AFFBA065284608F041F821A3D3E9002372
:102D700008F090F808F050FBE06530E094F80E5150
:102D8000F5B90BA800F080FCA16E0BA8203100F073
:102D900059FC0BABD4F8F410EE58304608F038FE6E
:102DA00008B1C4F8F4603046D4F8001108F04EFEC3
:102DB00008B1C4F80061043504340C2DE9D10EE0EB
:102DC0000025012384F8F23084F80D5184F80E5167
:102DD000284604F1F00101F0A3FFA36E1D7112B0AB
:102DE00070BD00BFAFF3008052B81E85EBDD7440AC
:102DF000F8C1631ADCA54C4000003540AFF30080F9
:102E000010B590B00446FDF7D9FD002837D0204614
:102E1000FFF716FFA26A0392E26A0492226B059200
:102E2000E2690692226A0792626A0892626B0992CC
:102E3000A26B0A92E26B0B92226C0C92626C6F2373
:102E40000D92A26CADF804303C23ADF806300E9222
:102E500041F20103E26CADF8083000230F92ADF8A7
:102E60000A301A4601A9505C01321B183C2A9BB259
:102E7000F8D1A069ADF80A3003681B69984710B013
:102E800010BD0023C3618362436343640362C36272
:102E90008363836443620363C363C3644FF07E53FD
:102EA0000364704737B504461D4600920323002291
:102EB000FDF768FD164B204640F86C3B01F0FEFC28
:102EC00004F1C80000F055FB124800F017F9204645
:102ED000FFF7D7FF20460021FDF76CFD0023256694
:102EE00000256366E3656365A3652365C4F8145133
:102EF000C4F8105184F80C5184F80D512046FFF7A6
:102F000044FE94F80C310BB184F80E5120463EBDBE
:102F1000D8CE0000988EFF1F10B5044604F1F001D2
:102F2000002001F013FF002384F8F230084B094A17
:102F3000C4F80031C4F80431C4F80831A36EC4F8F1
:102F4000F420C4F8F820C4F8FC2001221A7110BD46
:102F5000809618CB8096184B90F80D318A6810B582
:102F600004460BB112B110BD22B910BD012380F887
:102F70000E3110BD80F80E31FFF7CEFF012384F82B
:102F80000D3110BD054A137803F00203DBB2002BAC
:102F9000F9D0024B02221A70704700BF036006404E
:102FA000094B1B7813B9094B1B782BB1084A1378CE
:102FB000202B03D901230371002070470548C15419
:102FC0000133137001207047AA8EFF1F6D8EFF1F03
:102FD000AB8EFF1F4C8EFF1F7047FFFF024B187810
:102FE000024B1B78C01A7047A98EFF1FA88EFF1FC7
:102FF000064A074913780978994204D90549C85CFB
:103000000133137070474FF0FF307047A88EFF1FD9
:10301000A98EFF1F6E8EFF1F054B064A1B78127884
:103020009A4202D9044AD05C70474FF0FF30704793
:10303000A88EFF1FA98EFF1F6E8EFF1F38B50E4B87
:103040001B78144613B90D4B1B788BB10C4B1D78B4
:10305000C5F121039C4202D9012202711C46094894
:103060002246401909F048F8054B2D191D7000E063
:103070001C46204638BD00BFAA8EFF1F6D8EFF1F65
:10308000AB8EFF1F4C8EFF1F10B5104B1B7813F03B
:1030900020040BD1122003F053FB0D4B1B68A3B18E
:1030A0000C4A14700C4A1078984710BD0B4A1378DC
:1030B0000133DBB2012B137002D8094B1B7823B903
:1030C0001220BDE8104003F03BBB10BD036006407A
:1030D000488EFF1FA88EFF1FA98EFF1F948EFF1F13
:1030E0006D8EFF1F002202710273034A4FF47A7142
:1030F00081600260704700BFF0CE00000C4B0022E0
:103100001A700C4B196841F0400119600A4B0B49C9
:103110001A704FF419720A6041F8042C084A2721EA
:103120001170042151712021117180221A70704791
:103130006D8EFF1F34800440026006400CA00440E6
:103140000160064010B5374A137803F01001C9B288
:1031500021B903F04002D2B242B92EE01021117021
:1031600003F04002D2B2002AF3D110BD13F00403E1
:103170002D4A18D0002313702C4A13702C4B1B6857
:10318000144603B1984722782A4B1AB927491A7076
:1031900001200870284AD02111701A78274B1A7024
:1031A0000122274B21E001211170264A1370224B86
:1031B000C0221A7002331B7830E01F4A1F4C11786E
:1031C00011F0100117D013F0010310D11C4917485A
:1031D0000A780078904205D9164B9B5C0132237027
:1031E0000A7000E02370144BD0221A7016E0C0233E
:1031F0001370237812E0144B122019700322134924
:1032000003F074FA0F4A207813781F2B06D806496A
:10321000097819B10E49C85401331370014B0222C9
:103220001A7010BD03600640448EFF1FAB8EFF1F57
:10323000908EFF1F4C8EFF1F026006400460064008
:10324000AC8EFF1FA98EFF1F948EFF1F89300000D8
:103250006E8EFF1F044B054A49001970012313703D
:10326000034A1370704700BF4C8EFF1FAA8EFF1FCA
:10327000AB8EFF1F2DE9F041204B12221A70204A1D
:103280000D46117801F02001C9B211B1B4231370B9
:103290000BE019460A7802F02002D3B2002BF9D1D4
:1032A000184A1370164BB0221A700024164E174F8E
:1032B000DFF8608013E03B5D88F80030FFF762FEC6
:1032C0000E4B1B78DA0704D5002C14BF0320022014
:1032D0000BE003F01003DBB233B90134E4B233780E
:1032E000A342E8D8002000E0042015B1044B80225E
:1032F0001A70074B00221A70BDE8F0810360064087
:10330000026006406D8EFF1FAB8EFF1F4C8EFF1FAD
:10331000AA8EFF1F046006402DE9F0471446344A88
:103320001E4600231370334A1370334B12221A7057
:10333000324A107800F02000C0B210B1B4231370EC
:103340000BE01846027802F02002D3B2002BF9D12C
:103350002B4A1370294BB0221A704900294D41F0B5
:1033600001012970FFF70EFE234B244A1B7813F04E
:10337000110F04D0802313700020BDE8F0872CB912
:10338000002E0CBFA02680261670F5E7012C01D177
:10339000A82300E0A02313702B781B4FDFF8648074
:1033A000DFF8589025464FF0A80A0BE0013DEDB23A
:1033B000FFF7E8FD012D08BF89F800A098F800305C
:1033C00007F8013F012DF1D1FFF7DCFD0B4B0F4951
:1033D000B0221A700B4A1078621ED2B2885420466E
:1033E0000EB180221A70034B1C70BDE8F08700BF3D
:1033F000A88EFF1FA98EFF1F0360064002600640D3
:103400006D8EFF1F046006406D8EFF1F6E8EFF1FC6
:103410000123FFF781BF0121FFF72CBF0148FFF710
:1034200061BE00BF988EFF1F2DE9F04F1546324A4E
:1034300089B09A4613680291059300240746BDF8A7
:103440004860DDF81480A1462FE02C483946FFF78C
:1034500001FF02992948FFF7A3FD2848FFF7DBFF8A
:1034600026483946FFF7F6FE2A1B202AA8BF20224D
:1034700022483946D2B2FFF7CBFF4AFA89F34FF020
:10348000000B03930BEB0901C9B21C480191FFF734
:10349000A5FD0199E8B11EB3174B18680690069870
:1034A000C8EB0000B0421BD313E0AC42CDD36EB1E9
:1034B000114A12680792079AC8EB0208B04505D373
:1034C0004FFA89F2AA42B8BF4FF0FF094FFA89F0CC
:1034D0000FE0202D94BF64192034E4B28946E4E75C
:1034E0000648FFF785FD039B03F80B000BF1010B6A
:1034F000C8E709B0BDE8F08F848FFF1F988EFF1FCB
:1035000013B51446009301222346FFF78DFF1CBD1F
:10351000F8B507460C460D48394615461E46FFF7D6
:1035200099FE21460948FFF73BFD002403E0315D89
:10353000FFF736FD0134E3B2AB420448F7D3FFF79F
:103540006AFFD0F1010038BF0020F8BD988EFF1F40
:1035500007B502AB03F8012D0122FFF7D9FF0EBD1D
:10356000084603F081B80846114603F091B803F00D
:103570003FB84FF0FF3202605022026128224261C0
:1035800003228261C26110220262426268220271D9
:103590007047FFFF10B50B4C4FF07C51A4EB60045B
:1035A00008F098F8214608F095F8214608F092F8BE
:1035B00001464FF07F5007F083FF0146204608F098
:1035C00089F810BDDF59375F70B5044616460D46C1
:1035D00002784078B3B140EA022000B208F026F841
:1035E000314608F077F82860E378A07843EA0020B5
:1035F00000B208F01BF8314608F06CF868602079DA
:10360000637915E042EA002000B208F00FF8314675
:1036100008F060F82860A378E07843EA002000B260
:1036200008F004F8314608F055F8686060792379AD
:1036300043EA002000B207F0F9FF314608F04AF8EB
:10364000A86070BD884205D00B6803604B6843607A
:103650008B688360704738B504460D46006809687A
:1036600007F02EFF20606968606807F029FF60603E
:10367000A968A06807F024FFA060204638BD002399
:10368000036043608360704710B50446FFF7F7FF9F
:10369000204610BD70B505460C460068096808F064
:1036A00019F861680646686808F014F80146304663
:1036B00007F008FFA1680646A86808F00BF8014665
:1036C000304607F0FFFE70BD2DE9F047D1F808A0A5
:1036D000D0F8088005460C4650466968164607F043
:1036E000F9FF61680746404607F0F4FF0146384697
:1036F00007F0E6FE3060D4F800902F684046494657
:1037000007F0E8FF51468046384607F0E3FF0146E0
:10371000404607F0D5FE70606168384607F0DAFF72
:1037200069680446484607F0D5FF0146204607F081
:10373000C7FEB060BDE8F0872DE9F041D0F8008009
:103740004768866841460446404607F0C3FF39464D
:103750000546384607F0BEFF0146284607F0B2FE90
:1037600031460546304607F0B5FF0146284607F0CA
:10377000A9FEFFF70FFF0021054608F03FF9A0B9A9
:1037800028464FF07E5108F039F970B92946404675
:1037900007F0A0FF29462060384607F09BFF294626
:1037A0006060304607F096FFA060BDE8F0812DE92B
:1037B000FF410E4607C801AB83E807001846FFF734
:1037C000BBFF029807F012FB044603980D4607F072
:1037D0000DFB02460B462046294605F0C7F807F0C8
:1037E0001BFE3060019807F001FB04460298DDF8EB
:1037F0000C800D46014607F06DFF414607464046E6
:1038000007F068FF0146384607F05CFE07F0EEFA65
:1038100005F00AF90B4602462946204605F0A6F8AF
:1038200007F0FAFD002300F100407060B360BDE8CE
:10383000FF810346006870B501465E689D6807F029
:1038400049FF31460446304607F044FF0146204612
:1038500007F038FE29460446284607F03BFF01469C
:10386000204607F02FFE70BD884207D00B6803602A
:103870004B6843608B688360CB68C360704770B5EA
:1038800005460E4600242859315907F01BFE2851E1
:103890000434102CF7D1284670BD70B505460E468D
:1038A00000242859315907F00BFE28510434102CFC
:1038B000F7D1284670BDF0B58BB0044601A80D467F
:1038C000FFF7DDFE04A8FFF7DAFE07A8FFF7D7FE33
:1038D00063680193A3680293E36803936B6804939E
:1038E000AB680593EB6804A901A80693FFF7D2FE25
:1038F00007AA074604A901A8FFF7E6FE266829687B
:10390000304607F0E7FE394607F0DAFD04992060FB
:10391000304607F0DFFE2D6801990746284607F07C
:10392000D9FE0146384607F0CDFD079907F0CAFDDC
:1039300005996060304607F0CDFE0299074628469B
:1039400007F0C8FE0146384607F0BCFD089907F0AD
:10395000B9FD0699A060304607F0BCFE0399064603
:10396000284607F0B7FE0146304607F0ABFD09993F
:1039700007F0A8FDE06020460BB0F0BD38B5044666
:1039800000680D4607F0A6FE29462060606807F033
:10399000A1FE29466060A06807F09CFE2946A06051
:1039A000E06807F097FEE060204638BD38B5044671
:1039B00015460FC984E80F0020462946FFF77BFF14
:1039C000204638BD38B5044615460FC984E80F00B7
:1039D00020462946FFF7D2FF204638BD38B50446B9
:1039E00015460FC984E80F0020462946FFF755FF0A
:1039F000204638BD0023036043608360C360704786
:103A000010B50446FFF7F6FF204610BD2DE9F84338
:103A1000D0F80090D0F804808768C668494604460C
:103A2000484607F057FE41460546404607F052FE1D
:103A30000146284607F046FD39460546384607F058
:103A400049FE0146284607F03DFD31460546304611
:103A500007F040FE0146284607F034FDFFF79AFDC7
:103A60000021054607F0CAFFC8B928464FF07E512D
:103A700007F0C4FF98B92946484607F02BFE2946AF
:103A80002060404607F026FE29466060384607F071
:103A900021FE2946A060304607F01CFEE060BDE82C
:103AA000F883FFFF2DE9F8430746D0F80890D0F8D7
:103AB00004800E464846F96807F00CFE3968044653
:103AC000404607F007FE0146204607F0FBFC07F0E2
:103AD0008DF902460B4607F02BF804460D4640468A
:103AE000414607F0F7FD49468046484607F0F2FD9B
:103AF0000146404607F0E6FC07F078F902460B461F
:103B000007F016F802460B460020304907F00EF881
:103B100002460B462046294604F028FF07F07CFCAD
:103B2000B9683060386807F0D5FDF96804467868F0
:103B300007F0D0FD0146204607F0C2FC07F056F919
:103B400002460B4606F0F4FF04F0BCFE07F064FCEE
:103B5000D7F8089079687060484607F0BBFDD7F841
:103B60000C8039680446404607F0B4FD0146204603
:103B700007F0A8FC07F03AF902460B4606F0D8FF1A
:103B800004460D464846494607F0A4FD414607460F
:103B9000404607F09FFD0146384607F093FC07F0CA
:103BA00025F902460B4606F0C3FF02460B460020ED
:103BB000064906F0BBFF02460B462046294604F0A4
:103BC000D5FE07F029FCB060BDE8F8830000F03FA7
:103BD0002DE9F74F04460D4608684FF07C5107F079
:103BE00079FD07F003F906460F4604F0D5FD07F00E
:103BF00013FC39468146304604F018FE07F00CFCF1
:103C00004FF07C518346686807F064FD07F0EEF8DA
:103C100006460F4604F0C0FD07F0FEFB394682461B
:103C2000304604F003FE07F0F7FB4FF07C510190A3
:103C3000A86807F04FFD07F0D9F806460F4604F0D4
:103C4000ABFD07F0E9FB39460546304604F0EEFDD2
:103C500007F0E2FB51460646484607F03BFD019956
:103C60008046584607F036FD29460746404607F08D
:103C700031FD314603463846009307F02BFD009B8B
:103C80000146184607F01EFC51462060584607F0D2
:103C900021FD01998246484607F01CFD29468146D0
:103CA000504607F017FD31468346484607F012FD9F
:103CB0000146584607F004FC29466060484607F074
:103CC00009FD31468146504607F004FD014648464D
:103CD00007F0F8FB3146A060404607F0FBFC2946A0
:103CE0000646384607F0F6FC0146304607F0E8FB8A
:103CF000E060204603B0BDE8F04FFFF787BE38B55F
:103D00000D460446FFF776FE2B6823606B6803F1CF
:103D100000436360AB6803F10043A360EB6803F109
:103D20000043E360204638BD407970470048704743
:103D300008CF000005207047436B4FF4C87090FB1C
:103D4000F3F07047034B10B50446036000F0C0FB6E
:103D5000204610BD20CF000010B50446FFF7F2FF4B
:103D6000204604F099F9204610BDFFFF10B5044627
:103D700000F0CEFB014B2046236010BD20CF000099
:103D80004B1FB3F5797F4FF0000308D24FF47A72DE
:103D90004163B2FBF1F18163C363012070471846B0
:103DA0007047FFFF112907D8044A4BB29A4003D548
:103DB00080F88B10012070470020704700C000FE83
:103DC000082907D8044A4BB29A4003D580F88C10D2
:103DD0000120704700207047000080FE4B1E632BBF
:103DE00003D8C0F890100120704700207047FFFFF3
:103DF00008290BD001D829B117E010290AD01829B9
:103E000013D10BE080F89410094B0AE080F894106D
:103E1000084B06E080F89410074B02E0074B80F84F
:103E20009410C0F89830012070470020704700BF00
:103E3000FDB30B39A9689239787D0B3A787D8B3ABE
:103E400008290CD001D829B11BE010290CD0182961
:103E500017D10EE080F895104FF062530DE080F816
:103E600095104FF0645308E080F895104FF06653BA
:103E700003E080F895104FF06853C0F89C300120A3
:103E800070470020704710B538210446002290F892
:103E90008900FFF75DFB00282DD094F889002321CD
:103EA0000022FFF755FB30B394F889006A21002205
:103EB000FFF74EFBF8B194F889006A210422FFF75E
:103EC00047FBC0B194F889006A216022FFF740FBEC
:103ED00088B1322002F0E6FD94F8890038210122F1
:103EE000FFF736FB38B194F8890023217822BDE82A
:103EF0001040FFF72DBB002010BDFFFF70B5514EE5
:103F00008AB033880446722190F889000093022217
:103F100003ABFFF789FA00B911E09DF80C509DF84A
:103F20000D3003EB0525B5F5806F0AD12046FFF76C
:103F3000AAFFE36AA26B562101FB0233E362002071
:103F40007EE0B5F5F07F11D9338894F889000093AD
:103F500074210C2207ABFFF767FA0028EFD0E26A62
:103F6000A36B0C3DD318E362772DECE70B2DE6D95C
:103F7000344D94F889002B88742100930C2207ABF0
:103F8000FFF752FA0028DAD02B8894F889000093C2
:103F90004921082205ABFFF747FA0028CFD007A830
:103FA00004F11401D4F89C200123FFF70DFB0DF15F
:103FB000220004F10801D4F898200123FFF704FB44
:103FC000214A0DF1150004F120010023FFF7FCFA4E
:103FD000E368206AD4F8A01003F10043E36023698A
:103FE00003F100432361636903F10043636107F058
:103FF00071FBD4F8A4100546606A07F06BFBD4F897
:10400000A8100646A06A07F065FB05F10045A0620E
:1040100026622046656200F001FB204600F0A8FB06
:1040200094F8883023B1094B1B680493049B02E089
:10403000E26AA36BD318E362002384F8883001207E
:104040000AB070BD6687FF1F9A99193F848FFF1FC2
:1040500013B5164B04466A2190F889001B880DF1B0
:104060000702FFF74DFA08B900201DE09DF8072070
:1040700094F8890022F0200242F002026A218DF8B1
:104080000720FFF765FA0028EED0322002F00AFD83
:1040900094F8890037218222FFF75AFA0028E3D0EA
:1040A000322002F0FFFC01201CBD00BF6687FF1F0D
:1040B00013B5144B04466A2190F889001B880DF152
:1040C0000702FFF71DFA08B900201AE09DF8072043
:1040D00094F8890042F020026A218DF80720FFF74A
:1040E00037FA0028F0D0322002F0DCFC94F8890086
:1040F00037218022FFF72CFA18B1322002F0D2FCCF
:1041000001201CBD6687FF1F38B590F88B5090F8D2
:104110009430C5F3C102D21804461B2190F88900DF
:10412000D2B2FFF715FA40B194F889001A2105F0D0
:104130000702BDE83840FFF70BBA38BD10B504469A
:104140001C2190F8890094F89520FFF701FA40B1FE
:1041500094F8890094F88C201D21BDE81040FFF7E9
:10416000F7B910BD436BB3F57A7F0ADC4FF47A726E
:1041700092FBF3F35A1E90F889001921D2B2FFF78F
:10418000E7B901207047426BD0F8903090F8890071
:1041900092FBF3F2013A1F2AA8BF1F223421D2B2A8
:1041A000FFF7D6B91FB5012380F88830036B1A7961
:1041B000044680F889201969FFF7E2FD236B204649
:1041C0005969FFF70BFE236B2046197EFFF7EAFDC6
:1041D000236B2046197FFFF7F3FD236B204693F8EE
:1041E0002010FFF705FE236B204693F82410FFF7FD
:1041F00027FE204600F0B2F994F889006B21802256
:10420000FFF7A6F9002800F01881642002F04AFCAC
:1042100094F889006B210022FFF79AF9002800F03A
:104220000F81A74B94F889001B8875210DF10B02B3
:10423000FFF766F9002800F006819DF80B30712B1E
:1042400040F004812046FFF75FFF002800F0018165
:104250002046FFF773FF002800F0FE802046FFF79E
:1042600081FF002800F0FB802046FFF7F1FE0028C8
:1042700000F0F8800C200A210022FFF769F928B924
:104280002046FFF715FF6FF00B0017E10C200A2105
:104290000F22FFF75DF928B92046FFF709FF6FF0FD
:1042A0000C000BE1864B1B880C200093102103228D
:1042B0000DEB0003FFF7B8F828B92046FFF7F8FE2A
:1042C0006FF00D00FAE09DF80C0007F0ABF906F076
:1042D0008DFD00227B4B06F029FC00227A4B06F074
:1042E000D9FD0022794B06F023FC07F095F8C4F8BD
:1042F000A0009DF80D0007F095F906F077FD00226B
:10430000704B06F013FC00226F4B06F0C3FD002239
:104310006E4B06F00DFC07F07FF8C4F8A4009DF882
:104320000E0007F07FF906F061FD0022654B06F0F4
:10433000FDFB0022644B06F0ADFD0022634B06F04E
:10434000F7FB07F069F80A21C4F8A80000220C2046
:10435000FFF7FEF828B92046FFF7AAFE6FF00E001F
:10436000ACE02046FFF7A4FE00287ED094F8890038
:1043700024214022FFF7ECF8002879D094F8890036
:1043800025218C22FFF7E4F8002874D094F88900E6
:1043900026210222FFF7DCF800286FD094F889006C
:1043A00027218822FFF7D4F800286AD094F88900E2
:1043B00028210C22FFF7CCF8002865D094F889005A
:1043C00029210A22FFF7C4F8002860D094F8890058
:1043D0002A218122FFF7BCF800285BD094F88900DD
:1043E00064210122FFF7B4F8002856D094F8890020
:1043F00067210322FFF7ACF8002851D02046FFF7D1
:10440000C2FE00284FD094F889006B210122FFF7EB
:104410009FF800284AD094F889006C210022FFF709
:1044200097F8002845D02046FFF72DFD002843D0FF
:10443000204600F0E5F8012040E04FF0FF303DE07D
:104440006FF003003AE06FF0040037E06FF0050012
:1044500034E06FF0060031E06FF007002EE06FF0FF
:1044600008002BE06FF00A0028E06FF00F0025E055
:104470006FF0100022E06FF011001FE06FF01200EB
:104480001CE06FF0130019E06FF0140016E06FF0FD
:10449000150013E06FF0160010E06FF017000DE04C
:1044A0006FF018000AE06FF01A0007E06FF01B00D1
:1044B00004E06FF01C0001E06FF01D0004B010BDBF
:1044C0006687FF1F000060400000703F0000F03F63
:1044D000014B0360704700BF50CF000090F84800C8
:1044E0007047FFFF034B10B50446036003F0D4FD93
:1044F000204610BD50CF000038B50546B02003F06F
:10450000C7FD29460446FFF731FC204638BDFFFFB2
:1045100038B5114B044640F8083B0D46FFF7B4F898
:1045200004F11400FFF7B0F804F12000FFF7ACF835
:1045300004F14C00FFF7A8F804F15800FFF7A4F8C5
:1045400004F17C00FFF7A0F8002325632371637159
:1045500084F84830204638BD50CF00002DE9F043A4
:10456000064689B00020707101A900F0EFFB002819
:1045700041D09DF80630012B3DD1204D6C4603AF54
:1045800060690434616806F09BFF2946804607F0A5
:104590005DFA00B14546BC42F2D12846002107F041
:1045A00037FA40BB28464FF07C5107F093F8354668
:1045B0008146002401AA13190434D3F810805F68DF
:1045C0004046394606F07CFF4FF07C5107F082F8F8
:1045D0000146484607F032F939462867404606F05A
:1045E00071FF4FF07C5107F075F8043528660C2CEC
:1045F000E0D10123737109B0BDE8F083000080BFF2
:1046000010B50446406B07F011F801464FF08040AA
:1046100007F014F900232064636410BD2DE9F04312
:1046200000F15805804695E8070085B001AC08F117
:10463000140684E8070031462046FFF70CF831469F
:104640002846FEF7FFFF2046FFF7F3F8454907F03D
:10465000DFF980B108F10800FFF7EBF8424907F0F5
:10466000D7F978B907E001329A42C8F8442002D15C
:10467000012388F8483008F1080008F14C01FEF7E2
:10468000EAFF6CE0D8F84090484606F0AFFB0246DF
:104690000B460020354906F049FA0446D8F84C008C
:1046A0000D4606F0A3FB02460B462046294606F0BF
:1046B000F1FB06460F464846D8F8081007F00AF8FE
:1046C00006F094FB02460B463046394606F030FAB7
:1046D00006F0A2FEC8F84C00D8F8500006F086FBA1
:1046E00002460B462046294606F0D4FB06460F46F6
:1046F0004846D8F80C1006F0EDFF06F077FB0246AE
:104700000B463046394606F013FA06F085FEC8F827
:104710005000D8F8540006F069FB02460B462046CC
:10472000294606F0B7FB04460D464846D8F8101057
:1047300006F0D0FF06F05AFB02460B4620462946FB
:1047400006F0F6F906F068FED8F83430D8F84420C0
:10475000C8F8540005214B439A4284DB8BE705B02F
:10476000BDE8F0830BD7233B0BD7233D0000F03F80
:10477000037970B50646CBB94379BBB1006A716E57
:1047800006F09EFE316F06F0A5FFB16E3062706AD2
:1047900006F096FE716F06F09DFFF16E7062B06AD2
:1047A00006F08EFEB16F06F095FFB062306A2E49BA
:1047B00006F090FF06F01AFB0446F06F0D4606F077
:1047C00015FB27A3D3E9002306F064FB02460B4642
:1047D0002046294606F0ACF906F01EFE2249F06795
:1047E000706A06F077FF06F001FB0446D6F88000F9
:1047F0000D4606F0FBFA1AA3D3E9002306F04AFBA4
:1048000002460B462046294606F092F906F004FEC1
:104810001549C6F88000B06A06F05CFF06F0E6FABB
:104820000446D6F884000D4606F0E0FA0CA3D3E95E
:10483000002306F02FFB02460B462046294606F0D1
:1048400077F906F0E9FD06F17C01C6F8840006F16F
:104850002000BDE87040FEF7F5BE00BFAFF300805A
:10486000000000989999E93FCDCC4C3EAFF3008011
:10487000704730B5012385B080F85730044600F109
:10488000480501A8FEF700FF01A92846FEF7DAFE59
:10489000294604F13800FFF79BF904F12C0501A823
:1048A000FEF7F2FE01A92846FEF7CCFE04F11C003B
:1048B0002946FFF78DF905B030BDFFFF10B504465E
:1048C0000430FFF79DF804F11C00FFF799F804F19C
:1048D0002C00FEF7D9FE04F13800FFF791F804F13F
:1048E0004800FEF7D1FE084B6361084BA36101232A
:1048F000204684F8543084F8553084F85630FFF759
:10490000B8FF204610BD00BF6F12833A6F12033A02
:104910002DE9F04794B0064668460C461746FFF767
:104920006FF804A8FFF76CF896F8552006F12C01F3
:104930001AB12046FEF73BFF06E0084606F14801A3
:10494000FEF780FE0023736396F85630002B6CD080
:10495000F06A4FF07C5106F0BDFE06F047FA0446BF
:104960000D4603F019FF06F057FD29468046204604
:1049700003F05CFF06F050FD4FF07C518146306B38
:1049800006F0A8FE06F032FA04460D4603F004FFD6
:1049900006F042FD29468246204603F047FF06F016
:1049A0003BFD51460446404606F094FE51460490B5
:1049B000484606F08FFE21460590404606F08AFEE6
:1049C0002146069009F1004006F084FE0023009382
:1049D0003B68079001937B680293BB686A4608A80E
:1049E00004A90393FEF7E2FF0CA804A9FFF787F9D7
:1049F0000CAA10A808A9FEF7D9FF10A96846FEF76F
:104A000033FF029806F0F2F9044601980D4606F0CD
:104A1000EDF902460B462046294603F0A7FF06F0B3
:104A2000FBFC00F10040706301E0336D736306F13D
:104A30001C0806F12C0740463946FFF7C9F8DFF895
:104A40008C9000244FF0FF3506F11C03494653F8C3
:104A5000243023F0004A504606F0F8FF08B1D14652
:104A600025460134042CEFD106EB85090021D9F845
:104A70001C40204606F0CCFF28B1D9F838000021B0
:104A800006F0E4FF58B92046002106F0DFFFD0B160
:104A900006EB85050021A86B06F0BAFF98B1F36913
:104AA00003F10043F361336A03F100433362736A35
:104AB00003F100437362B36A03F10043B3624046FB
:104AC0003946FEF7EFFF14B0BDE8F08700007AC466
:104AD0002DE9F04F04468DB002A81E460F469046C1
:104AE000169DFEF7D1FD94F85730ABB13246A5655F
:104AF0002046414604F12C05FFF70AFF04F1380077
:104B00002946FFF765F804F148002946FEF79AFDAB
:104B1000002384F85730FDE0A06D281A06F082FDCE
:104B20007E4906F08BFEA5652060002106F07AFF25
:104B3000002840F0EF80414632462046FFF7E8FE6D
:104B4000636CD4F838A0019394F85430D4F83C80C6
:104B5000266C13B102A8394604E005A8FEF794FDBF
:104B600002A805A9FEF76EFD02984FF07C5106F0F1
:104B7000B1FD4FF07C510746039806F0ABFD4FF0B6
:104B80007C518146049806F0A5FD4146834607F115
:104B9000004006F09FFD314603464846009306F06C
:104BA00099FD009B25680146184606F089FC01998D
:104BB00003465846009306F08DFD009B01461846BB
:104BC00006F07EFC294606F085FD0146504606F0BB
:104BD00079FC5146A063384606F07CFD3146034619
:104BE0005846009306F076FD009B0146184606F0F5
:104BF00069FC019903464846009306F06BFD009B53
:104C00000146184606F05CFC294606F063FD0146A5
:104C1000404606F057FC5146E063484606F05AFD10
:104C2000414603465846009306F054FD009B01465A
:104C3000184606F045FC019903463846009306F0F5
:104C400049FD009B0146184606F03CFC294606F04B
:104C500041FD0146304606F035FC51462064584679
:104C600006F038FD41468246484606F033FD0146CF
:104C7000504606F027FC31468046384606F02AFDAD
:104C80000146404606F01CFC294606F023FD01467D
:104C9000019806F017FC94F85630606408A813B920
:104CA00094F8553033B104F11C0104F13802FEF7D9
:104CB00095FE01E0FEF7A4FE04F1380508A9201DC9
:104CC000FEF7D2FD261D2A4608A804F11C01FEF7B6
:104CD00085FE08A93046FEF7C7FD2168606906F029
:104CE000F9FCA169074606F0EDFB0146384606F0DF
:104CF000A5FD3146024608A8FEF764FE08A928462D
:104D0000FEF7BDFD2846FEF781FE284604F1480166
:104D1000FEF7C8FE0DB0BDE8F08F00BF00007A447A
:104D200070B583004401E41AFC230B7015234B700B
:104D300004F11C050E1B2146325D03480134FEF7C9
:104D400012FCAC42F7D170BDAD8EFF1F70B5830071
:104D50004401E41A00238B700D460D482146FEF7EE
:104D6000FFFBFC2812D1611C0948FEF7F9FB15284E
:104D70000CD104F11C062D1B21460548FEF7F0FB63
:104D800028550134B442F7D1012070BD002070BD18
:104D9000AD8EFF1F7047FFFF034B10B50446036045
:104DA000FBF7E0FD204610BD80CF000010B50446A3
:104DB000FFF7F2FF204603F06FF9204610BDC069EF
:104DC000C0B201B1012101F007BEC9680029D4BFFA
:104DD00000210121FFF7F3BF37B51D4600230093E3
:104DE00008230446FBF7CEFD084B012D236001D1BB
:104DF000062300E00723E361207F012101F018FE74
:104E000020460121FBF7D6FD20463EBD80CF0000A5
:104E10007047FFFF034B10B504460360FBF7A2FD8C
:104E2000204610BD98CF000010B50446FFF7F2FFF2
:104E3000204603F031F9204610BD38B5044603F092
:104E4000A9FA0546204603F05FFA281838BDFFFF8F
:104E5000F0B58DB00446FBF7B1FD002857D07123A3
:104E6000ADF8003004F11C0730230025ADF8023006
:104E7000384641F20103ADF80430ADF8065000F0B9
:104E800077F9CDE90201384600F096F984F895509B
:104E9000CDE90401D4F89C001E4E05F095FF0022D8
:104EA0001D4B06F021F9D4F8BC3084F8B5500893B6
:104EB000D4F8AC3084F8A550012209930023CDE941
:104EC0000A233368CDE9060105225B6813493046A1
:104ED0009847DDE90A2352EA0301304601D0012157
:104EE00000E02946FFF7A9FF0023BDF802101A468B
:104EF00004E01DF80300121892B201338B42F8DB74
:104F0000A069ADF80620036869461B6998470DB093
:104F1000F0BD00BF9091FF1F00005940A8CF0000D6
:104F200037B504461D46009202230022FBF72AFDF6
:104F300020460F4B40F81C3B00F02CF815B1C4F88C
:104F4000F45003E04FF41653C4F8F430D4F8F430BE
:104F5000580800F1B76000F55840B0FBF3F001F0DD
:104F60000BFF20460121FBF725FD20463EBD00BF7B
:104F700098CF000010B5044602F076F8002808DD4E
:104F800002F080F8C1B204F11C00BDE8104000F04E
:104F9000D5BA10BD0346002110B50224017041703E
:104FA0008180816001824161818301620185C162EA
:104FB0001973197683F8241083F8301083F83810A9
:104FC000C16383F8391083F84810C16483F849102D
:104FD00083F8581001660167C0F8801083F85910F3
:104FE00083F8681083F8691083F8781083F87910D3
:104FF00083F8881083F88910C0F8901083F898100F
:1050000083F89910C0F8A01080F8B94083F8A81070
:1050100083F8A91083F8BA1083F8BB1083F8BC108A
:10502000C0F8C010C0F8C410C0F8C810C0F8CC1048
:10503000C0F8D010C0F8D41083F8AA1010BDA1F1A8
:105040004103052B02D8A1F137007047A1F161039C
:10505000052B94BFA1F15700A1F13000704738B57E
:105060000578B5F12D035D425D41044605B1441C50
:10507000204606F021FD64234343224614F8011B19
:10508000A1F130000928F8D92E2910D15178A1F1C9
:10509000300009280BD809B2C800927800EB410112
:1050A000303AA1F5F0715B18092A98BF9B1805B139
:1050B0005B42184638BDFFFF38B50C46054606F082
:1050C000FBFC6423B0FBF3F21249228003FB1203C2
:1050D0004B432846014610F8012BA2F13005092D5B
:1050E000F8D92E2A0CD108460A4A0A2503E0B2FB59
:1050F000F5F202FB013310F8011F30390929F6D906
:105100000522534301330322B3FBF2F36360002310
:10511000237238BD80969800034682B053F81C2F46
:1051200042605A6882601B7A0373034653F8282F43
:1051300002615A6842611B7A0376054B1B68019332
:10514000019B436301234370037002B0704700BFAB
:10515000848FFF1F00F11C0308461946FFF7ACBF00
:1051600000F1280308461946FFF7A6BFFFFFFFFF1F
:10517000002370B543700646808805F025FE04467E
:10518000B0680D4605F010FE09A3D3E9002305F031
:10519000ABFF02460B462046294605F0C9FC0B46EC
:1051A000317B024609B103F100431046194670BD38
:1051B0000000000065CDCD41002370B54370064668
:1051C000008A05F001FE044670690D4605F0ECFD0D
:1051D00009A3D3E9002305F087FF02460B462046CA
:1051E000294605F0A5FC0B46317E024609B103F1C4
:1051F00000431046194670BD0000000065CDCD414A
:1052000083684360054B82B01B680193019BC360B8
:1052100001234370037002B0704700BF848FFF1FEB
:1052200083684360054B82B01B680193019BC36098
:1052300001234370037002B0704700BF848FFF1FCB
:1052400010B504460846FFF70AFFA06010BD10B570
:105250000446084606F030FCA06010BDC3688360B9
:10526000054B82B01B680193019B4360012343708F
:10527000037002B0704700BF848FFF1F10B5044653
:105280000846FFF7ECFEE06010BDFFFFC3688360D7
:10529000054B82B01B680193019B4360012343705F
:1052A000037002B0704700BF848FFF1F10B5044623
:1052B000084606F001FCE06010BDFFFF13B5044690
:1052C0002146103007F03EF9054B1B680193019B06
:1052D0002362012384F8253084F824301CBD00BFEC
:1052E000848FFF1F102207F08BB9FFFF90F8A930C1
:1052F00070B50446002B62D090F8AA10FFF79FFE0D
:1053000094F8AB1005462046FFF799FE94F8A830B4
:1053100000EB0510C5B2AB424BD1D4F8D430013309
:10532000C4F8D43094F8BC3023B1D4F8CC30013375
:10533000C4F8CC3094F8B930B3B1012B2AD104F1C0
:105340003800FFF75DFF04F14800FFF769FF94F8AC
:10535000BC30FBB12046FFF7DFFE04F15800FFF739
:105360007DFF04F1680013E004F14800FFF758FFE7
:1053700094F8BC3033B12046FFF7CEFE04F178003C
:10538000FFF76CFF04F18800FFF780FF04F198003D
:10539000FFF764FFD4F8C450002D00F0BC80D4F8AF
:1053A000C430A86A996A06F0DFFF002800F0B580D3
:1053B000B1E0D4F8D0300133C4F8D0301DE090F81B
:1053C000BA2042BB00F1AA0528465A4906F0CCFF94
:1053D00008B9012308E02846574906F0C5FF10B96F
:1053E00084F8B90002E0022384F8B930D4F8C03060
:1053F000C4F8C430D4F8C4600EB9002070BDB06ADF
:10540000294606F0B1FF002880F290808AE0002053
:10541000C4F8C40070BD90F8B910022960D090F8AB
:10542000AA30002B5CD042EA4112013A282A57D810
:10543000DFE802F01520252C3142494F51565656CF
:1054400056565656565656565656565656565656FC
:1054500056565656151B20252C31383A3C004830FC
:1054600004F1AA01FFF7ECFE3AE0B3F14100434238
:10547000434125E004F1AA01FFF76CFE30E0B3F1EF
:1054800053014B424B4180F8243029E004F1AA013A
:10549000FFF766FE24E0B3F157025342534180F810
:1054A00030301DE0583017E0683015E0383004F136
:1054B000AA01FFF7CCFE13E0302B94BF0023012399
:1054C00084F8BC300CE0883004F1AA01FFF7EEFE4E
:1054D00006E0983000E0783004F1AA01FFF7CEFE34
:1054E000D4F8C45004F1AA0604E028463146FFF778
:1054F000F9FE2D6B002D80D0D4F8C430A86A996ACB
:1055000006F032FF00287FF478AFEB6A94F8BA20F7
:10551000934209DD71E7012070BD2846FFF7CEFEFA
:105520002D6B39E7336B63E7E3D1DEE77FF46FAFD1
:1055300063E700BFAECF0000B4CF000038B5D0F8AD
:10554000C8300133242904460D46C0F8C8302CD099
:1055500004D80A290CD00D2936D109E02A2907D010
:105560002C2931D190F8A83083F02C0380F8A83092
:1055700094F8BB300E2B4FF0000005D8E31883F8E9
:10558000AA002046FFF7B2FE94F8BA30013384F83F
:10559000BA300023B5F12A0CDCF1000555EB0C05FF
:1055A00084F8BB3084F8A95038BD0020022384F869
:1055B000BB0084F8BA0084F8A80084F8B93084F8F5
:1055C000A90084F8BC0038BD94F8BB300D2B05D879
:1055D000E218013382F8AA5084F8BB3094F8A9008D
:1055E00028B994F8A8305D4084F8A85038BD002050
:1055F00038BDFFFF2E4B002230B51A6090F8943072
:1056000053B9D0F890305A6802F596525A6090F823
:1056100099201A60012347E0012B28D190F895309A
:1056200073B100EB830290F89710526C01338B42F8
:1056300088BF0023D0F88C10A2F5965271B913E000
:1056400090F89640011F80F897401A4603E051F801
:10565000045F01324D64A242F9D9E2E7012B01D186
:105660000B7001E000240C7080F8953001E0D0F858
:1056700088204EF660239A42D0F89030596806D8B8
:105680008A185A6090F898201A6000230CE001F5FF
:1056900062419031596090F89910A2F56242903AB7
:1056A0001960C0F88820022380F8943030BD00BF14
:1056B00054800340442380F88A307047324B1A6884
:1056C0004FF6FF739A4230B5304A51D1136803F058
:1056D0007F03482B4CD14B1F0024122B46D8DFE808
:1056E00003F00A1F45450D104545454545454545CF
:1056F000451316191C00264A072313E0254A0223E6
:1057000010E0254A03230DE0244A05230AE0244A39
:10571000062307E0234A002304E0234A012301E093
:10572000224A0423C0F8844080F88B4090F88A40D5
:105730000260FF2580F8885014601D4A42F823005B
:105740001C4A0120147800FA03F3234313701A4B08
:1057500003EBC10140F244424B681A60174B202210
:105760001A70174B4FF080421A6030BD002030BDD8
:10577000144C00234FF6FF751360236065604824C6
:105780001460114A1360A6E70880034000800340BC
:10579000448003401C800340248003403480034045
:1057A0003C8003400C800340148003402C80034065
:1057B000B48EFF1FB38EFF1F78D000003EE400E0E0
:1057C00004E100E00480034054800340036890F843
:1057D0008A105A6810B51960174BB2F5604F1B88D4
:1057E00003D91649097801B1013B42EA0343D0F8D5
:1057F0008420C0F884309A1A114B9A4290F888306D
:1058000011D9FF2B0DD0021F002103E00432546890
:10581000013154649942F9DB80F88930012380F822
:105820008B30002305E00F2B05D800EB83010133FB
:105830004A6080F8883010BDB08EFF1FAE8EFF1F0B
:105840003F9002006E4B1A6810B5140608D5482226
:105850001A606C4B1A8801321A806B4B01221A7045
:105860006A4B1C78E00703D5694B1B68190677D48F
:1058700004F00203DBB21BB1664B1B681A0674D43A
:1058800004F00403DBB21BB1634B1B681B0671D42D
:1058900004F00803DBB21BB1604B1B6818066ED422
:1058A00004F01003DBB21BB15D4B1B6819066BD40F
:1058B00004F02003DBB21BB15A4B1B681A0668D4F4
:1058C00004F04003DBB21BB1574B1B681B0665D4C9
:1058D000200603D5554B1B68190664D4544B1C781D
:1058E000E20703D54A4B1B681B0661D404F0020390
:1058F000DBB21BB1474B1B6818065ED404F00403EF
:10590000DBB21BB1444B1B6819065BD404F00803DF
:10591000DBB21BB1414B1B681A0658D404F01003CC
:10592000DBB21BB13E4B1B681B0655D404F02003B1
:10593000DBB21BB13B4B1B68180652D404F040038A
:10594000DBB21BB1384B1B6819064FD4220603D5B6
:10595000364B1B681B064ED42B4B00221A7010BD11
:10596000344B1868FFF732FF82E7324B5868FFF775
:105970002DFF85E72F4B9868FFF728FF88E72D4B11
:10598000D868FFF723FF8BE72A4B1869FFF71EFF44
:105990008EE7284B5869FFF719FF91E7254B986967
:1059A000FFF714FF94E7234BD869FFF70FFF95E744
:1059B000214B1868FFF71EFE98E71F4B5868FFF74A
:1059C00019FE9BE71C4B9868FFF714FE9EE71A4BE5
:1059D000D868FFF70FFEA1E7174B1869FFF70AFE1B
:1059E000A4E7154B5869FFF705FEA7E7124B986926
:1059F000FFF700FEAAE7104BD869FFF7FBFDABE706
:105A000000800340B08EFF1FAE8EFF1FB38EFF1FBE
:105A10000C800340148003401C800340248003401A
:105A20002C800340348003403C800340448003408A
:105A3000B28EFF1FB48EFF1FD48EFF1F08B5034622
:105A4000A9B1481E72B693F8892090423ABF03EB81
:105A50008100006C0020914202D3002283F88B2049
:105A600062B605F0DFFD034905F0E8FE08BD002041
:105A700008BD00BF000040427047FFFF034B10B558
:105A800004460360FAF76EFF204610BDE8CF000021
:105A900010B50446FFF7F2FF204602F0FDFA20465B
:105AA00010BD70B58AB00546FAF788FF002849D0C6
:105AB000722305F11C04ADF8003028230026ADF850
:105AC0000230012141F201032046ADF80430ADF867
:105AD0000660FFF7B3FF022102902046FFF7AEFFFA
